{"abi":[{"type":"constructor","inputs":[{"name":"initialOwner","type":"address","internalType":"address"},{"name":"_uri","type":"string","internalType":"string"}],"stateMutability":"nonpayable"},{"type":"function","name":"balanceOf","inputs":[{"name":"account","type":"address","internalType":"address"},{"name":"id","type":"uint256","internalType":"uint256"}],"outputs":[{"name":"","type":"uint256","internalType":"uint256"}],"stateMutability":"view"},{"type":"function","name":"balanceOfBatch","inputs":[{"name":"accounts","type":"address[]","internalType":"address[]"},{"name":"ids","type":"uint256[]","internalType":"uint256[]"}],"outputs":[{"name":"","type":"uint256[]","internalType":"uint256[]"}],"stateMutability":"view"},{"type":"function","name":"burn","inputs":[{"name":"account","type":"address","internalType":"address"},{"name":"id","type":"uint256","internalType":"uint256"},{"name":"value","type":"uint256","internalType":"uint256"}],"outputs":[],"stateMutability":"nonpayable"},{"type":"function","name":"burnBatch","inputs":[{"name":"account","type":"address","internalType":"address"},{"name":"ids","type":"uint256[]","internalType":"uint256[]"},{"name":"values","type":"uint256[]","internalType":"uint256[]"}],"outputs":[],"stateMutability":"nonpayable"},{"type":"function","name":"isApprovedForAll","inputs":[{"name":"account","type":"address","internalType":"address"},{"name":"operator","type":"address","internalType":"address"}],"outputs":[{"name":"","type":"bool","internalType":"bool"}],"stateMutability":"view"},{"type":"function","name":"mint","inputs":[{"name":"account","type":"address","internalType":"address"},{"name":"id","type":"uint256","internalType":"uint256"},{"name":"amount","type":"uint256","internalType":"uint256"},{"name":"data","type":"bytes","internalType":"bytes"}],"outputs":[],"stateMutability":"nonpayable"},{"type":"function","name":"mintBatch","inputs":[{"name":"to","type":"address","internalType":"address"},{"name":"ids","type":"uint256[]","internalType":"uint256[]"},{"name":"amounts","type":"uint256[]","internalType":"uint256[]"},{"name":"data","type":"bytes","internalType":"bytes"}],"outputs":[],"stateMutability":"nonpayable"},{"type":"function","name":"owner","inputs":[],"outputs":[{"name":"","type":"address","internalType":"address"}],"stateMutability":"view"},{"type":"function","name":"pause","inputs":[],"outputs":[],"stateMutability":"nonpayable"},{"type":"function","name":"paused","inputs":[],"outputs":[{"name":"","type":"bool","internalType":"bool"}],"stateMutability":"view"},{"type":"function","name":"renounceOwnership","inputs":[],"outputs":[],"stateMutability":"nonpayable"},{"type":"function","name":"safeBatchTransferFrom","inputs":[{"name":"from","type":"address","internalType":"address"},{"name":"to","type":"address","internalType":"address"},{"name":"ids","type":"uint256[]","internalType":"uint256[]"},{"name":"values","type":"uint256[]","internalType":"uint256[]"},{"name":"data","type":"bytes","internalType":"bytes"}],"outputs":[],"stateMutability":"nonpayable"},{"type":"function","name":"safeTransferFrom","inputs":[{"name":"from","type":"address","internalType":"address"},{"name":"to","type":"address","internalType":"address"},{"name":"id","type":"uint256","internalType":"uint256"},{"name":"value","type":"uint256","internalType":"uint256"},{"name":"data","type":"bytes","internalType":"bytes"}],"outputs":[],"stateMutability":"nonpayable"},{"type":"function","name":"setApprovalForAll","inputs":[{"name":"operator","type":"address","internalType":"address"},{"name":"approved","type":"bool","internalType":"bool"}],"outputs":[],"stateMutability":"nonpayable"},{"type":"function","name":"setURI","inputs":[{"name":"newuri","type":"string","internalType":"string"}],"outputs":[],"stateMutability":"nonpayable"},{"type":"function","name":"supportsInterface","inputs":[{"name":"interfaceId","type":"bytes4","internalType":"bytes4"}],"outputs":[{"name":"","type":"bool","internalType":"bool"}],"stateMutability":"view"},{"type":"function","name":"transferOwnership","inputs":[{"name":"newOwner","type":"address","internalType":"address"}],"outputs":[],"stateMutability":"nonpayable"},{"type":"function","name":"unpause","inputs":[],"outputs":[],"stateMutability":"nonpayable"},{"type":"function","name":"uri","inputs":[{"name":"id","type":"uint256","internalType":"uint256"}],"outputs":[{"name":"","type":"string","internalType":"string"}],"stateMutability":"view"},{"type":"event","name":"ApprovalForAll","inputs":[{"name":"account","type":"address","indexed":true,"internalType":"address"},{"name":"operator","type":"address","indexed":true,"internalType":"address"},{"name":"approved","type":"bool","indexed":false,"internalType":"bool"}],"anonymous":false},{"type":"event","name":"OwnershipTransferred","inputs":[{"name":"previousOwner","type":"address","indexed":true,"internalType":"address"},{"name":"newOwner","type":"address","indexed":true,"internalType":"address"}],"anonymous":false},{"type":"event","name":"Paused","inputs":[{"name":"account","type":"address","indexed":false,"internalType":"address"}],"anonymous":false},{"type":"event","name":"TransferBatch","inputs":[{"name":"operator","type":"address","indexed":true,"internalType":"address"},{"name":"from","type":"address","indexed":true,"internalType":"address"},{"name":"to","type":"address","indexed":true,"internalType":"address"},{"name":"ids","type":"uint256[]","indexed":false,"internalType":"uint256[]"},{"name":"values","type":"uint256[]","indexed":false,"internalType":"uint256[]"}],"anonymous":false},{"type":"event","name":"TransferSingle","inputs":[{"name":"operator","type":"address","indexed":true,"internalType":"address"},{"name":"from","type":"address","indexed":true,"internalType":"address"},{"name":"to","type":"address","indexed":true,"internalType":"address"},{"name":"id","type":"uint256","indexed":false,"internalType":"uint256"},{"name":"value","type":"uint256","indexed":false,"internalType":"uint256"}],"anonymous":false},{"type":"event","name":"URI","inputs":[{"name":"value","type":"string","indexed":false,"internalType":"string"},{"name":"id","type":"uint256","indexed":true,"internalType":"uint256"}],"anonymous":false},{"type":"event","name":"Unpaused","inputs":[{"name":"account","type":"address","indexed":false,"internalType":"address"}],"anonymous":false},{"type":"error","name":"ERC1155InsufficientBalance","inputs":[{"name":"sender","type":"address","internalType":"address"},{"name":"balance","type":"uint256","internalType":"uint256"},{"name":"needed","type":"uint256","internalType":"uint256"},{"name":"tokenId","type":"uint256","internalType":"uint256"}]},{"type":"error","name":"ERC1155InvalidApprover","inputs":[{"name":"approver","type":"address","internalType":"address"}]},{"type":"error","name":"ERC1155InvalidArrayLength","inputs":[{"name":"idsLength","type":"uint256","internalType":"uint256"},{"name":"valuesLength","type":"uint256","internalType":"uint256"}]},{"type":"error","name":"ERC1155InvalidOperator","inputs":[{"name":"operator","type":"address","internalType":"address"}]},{"type":"error","name":"ERC1155InvalidReceiver","inputs":[{"name":"receiver","type":"address","internalType":"address"}]},{"type":"error","name":"ERC1155InvalidSender","inputs":[{"name":"sender","type":"address","internalType":"address"}]},{"type":"error","name":"ERC1155MissingApprovalForAll","inputs":[{"name":"operator","type":"address","internalType":"address"},{"name":"owner","type":"address","internalType":"address"}]},{"type":"error","name":"EnforcedPause","inputs":[]},{"type":"error","name":"ExpectedPause","inputs":[]},{"type":"error","name":"OwnableInvalidOwner","inputs":[{"name":"owner","type":"address","internalType":"address"}]},{"type":"error","name":"OwnableUnauthorizedAccount","inputs":[{"name":"account","type":"address","internalType":"address"}]}],"bytecode":{"object":"0x608060405234801561001057600080fd5b50604051611e49380380611e4983398101604081905261002f916100ff565b818161003a81610087565b506001600160a01b03811661006957604051631e4fbdf760e01b81526000600482015260240160405180910390fd5b61007281610097565b50506003805460ff60a01b1916905550610332565b60026100938282610273565b5050565b600380546001600160a01b038381166001600160a01b0319831681179093556040519116919082907f8be0079c531659141344cd1fd0a4f28419497f9722a3daafe3b4186f6b6457e090600090a35050565b634e487b7160e01b600052604160045260246000fd5b6000806040838503121561011257600080fd5b82516001600160a01b038116811461012957600080fd5b602084810151919350906001600160401b038082111561014857600080fd5b818601915086601f83011261015c57600080fd5b81518181111561016e5761016e6100e9565b604051601f8201601f19908116603f01168101908382118183101715610196576101966100e9565b8160405282815289868487010111156101ae57600080fd5b600093505b828410156101d057848401860151818501870152928501926101b3565b60008684830101528096505050505050509250929050565b600181811c908216806101fc57607f821691505b60208210810361021c57634e487b7160e01b600052602260045260246000fd5b50919050565b601f82111561026e576000816000526020600020601f850160051c8101602086101561024b5750805b601f850160051c820191505b8181101561026a57828155600101610257565b5050505b505050565b81516001600160401b0381111561028c5761028c6100e9565b6102a08161029a84546101e8565b84610222565b602080601f8311600181146102d557600084156102bd5750858301515b600019600386901b1c1916600185901b17855561026a565b600085815260208120601f198616915b82811015610304578886015182559484019460019091019084016102e5565b50858210156103225787850151600019600388901b60f8161c191681555b5050505050600190811b01905550565b611b08806103416000396000f3fe608060405234801561001057600080fd5b50600436106101205760003560e01c80636b20c454116100ad578063a22cb46511610071578063a22cb46514610254578063e985e9c514610267578063f242432a1461027a578063f2fde38b1461028d578063f5298aca146102a057600080fd5b80636b20c45414610203578063715018a614610216578063731133e91461021e5780638456cb59146102315780638da5cb5b1461023957600080fd5b80631f7fdffa116100f45780631f7fdffa146101a35780632eb2c2d6146101b65780633f4ba83a146101c95780634e1273f4146101d15780635c975abb146101f157600080fd5b8062fdd58e1461012557806301ffc9a71461014b57806302fe53051461016e5780630e89341c14610183575b600080fd5b61013861013336600461117a565b6102b3565b6040519081526020015b60405180910390f35b61015e6101593660046111ba565b6102db565b6040519015158152602001610142565b61018161017c36600461127b565b61032b565b005b6101966101913660046112cb565b61033f565b6040516101429190611334565b6101816101b13660046113f9565b610380565b6101816101c4366004611491565b61039a565b610181610406565b6101e46101df36600461153a565b610418565b6040516101429190611635565b600354600160a01b900460ff1661015e565b610181610211366004611648565b6104e4565b610181610548565b61018161022c3660046116bb565b61055a565b61018161056e565b6003546040516001600160a01b039091168152602001610142565b61018161026236600461170f565b61057e565b61015e61027536600461174b565b61058d565b61018161028836600461177e565b6105bb565b61018161029b3660046117e2565b61061a565b6101816102ae3660046117fd565b610655565b6000818152602081815260408083206001600160a01b03861684529091529020545b92915050565b60006001600160e01b03198216636cdb3d1360e11b148061030c57506001600160e01b031982166303a24d0760e21b145b806102d557506301ffc9a760e01b6001600160e01b03198316146102d5565b61033361068b565b61033c816106b8565b50565b6060600061034c836106c4565b90508061035884610758565b604051602001610369929190611830565b604051602081830303815290604052915050919050565b61038861068b565b610394848484846107ea565b50505050565b336001600160a01b03861681148015906103bb57506103b9868261058d565b155b156103f15760405163711bec9160e11b81526001600160a01b038083166004830152871660248201526044015b60405180910390fd5b6103fe8686868686610822565b505050505050565b61040e61068b565b610416610889565b565b606081518351146104495781518351604051635b05999160e01b8152600481019290925260248201526044016103e8565b600083516001600160401b03811115610464576104646111de565b60405190808252806020026020018201604052801561048d578160200160208202803683370190505b50905060005b84518110156104dc576020808202860101516104b7906020808402870101516102b3565b8282815181106104c9576104c961186c565b6020908102919091010152600101610493565b509392505050565b6001600160a01b03831633148015906105045750610502833361058d565b155b1561053857335b60405163711bec9160e11b81526001600160a01b03918216600482015290841660248201526044016103e8565b6105438383836108de565b505050565b61055061068b565b6104166000610924565b61056261068b565b61039484848484610976565b61057661068b565b6104166109d3565b610589338383610a16565b5050565b6001600160a01b03918216600090815260016020908152604080832093909416825291909152205460ff1690565b336001600160a01b03861681148015906105dc57506105da868261058d565b155b1561060d5760405163711bec9160e11b81526001600160a01b038083166004830152871660248201526044016103e8565b6103fe8686868686610aac565b61062261068b565b6001600160a01b03811661064c57604051631e4fbdf760e01b8152600060048201526024016103e8565b61033c81610924565b6001600160a01b03831633148015906106755750610673833361058d565b155b15610680573361050b565b610543838383610b3a565b6003546001600160a01b031633146104165760405163118cdaa760e01b81523360048201526024016103e8565b60026105898282611904565b6060600280546106d390611882565b80601f01602080910402602001604051908101604052809291908181526020018280546106ff90611882565b801561074c5780601f106107215761010080835404028352916020019161074c565b820191906000526020600020905b81548152906001019060200180831161072f57829003601f168201915b50505050509050919050565b6060600061076583610ba2565b60010190506000816001600160401b03811115610784576107846111de565b6040519080825280601f01601f1916602001820160405280156107ae576020820181803683370190505b5090508181016020015b600019016f181899199a1a9b1b9c1cb0b131b232b360811b600a86061a8153600a85049450846107b857509392505050565b6001600160a01b03841661081457604051632bfa23e760e11b8152600060048201526024016103e8565b610394600085858585610c7a565b6001600160a01b03841661084c57604051632bfa23e760e11b8152600060048201526024016103e8565b6001600160a01b03851661087557604051626a0d4560e21b8152600060048201526024016103e8565b6108828585858585610c7a565b5050505050565b610891610ccd565b6003805460ff60a01b191690557f5db9ee0a495bf2e6ff9c91a7834c1ba4fdd244a5e8aa4e537bd38aeae4b073aa335b6040516001600160a01b03909116815260200160405180910390a1565b6001600160a01b03831661090757604051626a0d4560e21b8152600060048201526024016103e8565b610543836000848460405180602001604052806000815250610c7a565b600380546001600160a01b038381166001600160a01b0319831681179093556040519116919082907f8be0079c531659141344cd1fd0a4f28419497f9722a3daafe3b4186f6b6457e090600090a35050565b6001600160a01b0384166109a057604051632bfa23e760e11b8152600060048201526024016103e8565b604080516001808252602082018690528183019081526060820185905260808201909252906103fe600087848487610c7a565b6109db610cf7565b6003805460ff60a01b1916600160a01b1790557f62e78cea01bee320cd4e420270b5ea74000d11b0c9f74754ebdbfc544b05a2586108c13390565b6001600160a01b038216610a3f5760405162ced3e160e81b8152600060048201526024016103e8565b6001600160a01b03838116600081815260016020908152604080832094871680845294825291829020805460ff191686151590811790915591519182527f17307eab39ab6107e8899845ad3d59bd9653f200f220920489ca2b5937696c31910160405180910390a3505050565b6001600160a01b038416610ad657604051632bfa23e760e11b8152600060048201526024016103e8565b6001600160a01b038516610aff57604051626a0d4560e21b8152600060048201526024016103e8565b60408051600180825260208201869052818301908152606082018590526080820190925290610b318787848487610c7a565b50505050505050565b6001600160a01b038316610b6357604051626a0d4560e21b8152600060048201526024016103e8565b604080516001808252602082018590528183019081526060820184905260a0820190925260006080820181815291929161088291879185908590610c7a565b60008072184f03e93ff9f4daa797ed6e38ed64bf6a1f0160401b8310610be15772184f03e93ff9f4daa797ed6e38ed64bf6a1f0160401b830492506040015b6d04ee2d6d415b85acef81000000008310610c0d576d04ee2d6d415b85acef8100000000830492506020015b662386f26fc100008310610c2b57662386f26fc10000830492506010015b6305f5e1008310610c43576305f5e100830492506008015b6127108310610c5757612710830492506004015b60648310610c69576064830492506002015b600a83106102d55760010192915050565b610c8685858585610d22565b6001600160a01b038416156108825782513390600103610cbf5760208481015190840151610cb8838989858589610d2e565b50506103fe565b6103fe818787878787610e52565b600354600160a01b900460ff1661041657604051638dfc202b60e01b815260040160405180910390fd5b600354600160a01b900460ff16156104165760405163d93c066560e01b815260040160405180910390fd5b61039484848484610f3b565b6001600160a01b0384163b156103fe5760405163f23a6e6160e01b81526001600160a01b0385169063f23a6e6190610d7290899089908890889088906004016119c3565b6020604051808303816000875af1925050508015610dad575060408051601f3d908101601f19168201909252610daa91810190611a08565b60015b610e16573d808015610ddb576040519150601f19603f3d011682016040523d82523d6000602084013e610de0565b606091505b508051600003610e0e57604051632bfa23e760e11b81526001600160a01b03861660048201526024016103e8565b805181602001fd5b6001600160e01b0319811663f23a6e6160e01b14610b3157604051632bfa23e760e11b81526001600160a01b03861660048201526024016103e8565b6001600160a01b0384163b156103fe5760405163bc197c8160e01b81526001600160a01b0385169063bc197c8190610e969089908990889088908890600401611a25565b6020604051808303816000875af1925050508015610ed1575060408051601f3d908101601f19168201909252610ece91810190611a08565b60015b610eff573d808015610ddb576040519150601f19603f3d011682016040523d82523d6000602084013e610de0565b6001600160e01b0319811663bc197c8160e01b14610b3157604051632bfa23e760e11b81526001600160a01b03861660048201526024016103e8565b610f43610cf7565b610394848484848051825114610f795781518151604051635b05999160e01b8152600481019290925260248201526044016103e8565b3360005b835181101561107f576020818102858101820151908501909101516001600160a01b03881615611030576000828152602081815260408083206001600160a01b038c16845290915290205481811015611009576040516303dee4c560e01b81526001600160a01b038a1660048201526024810182905260448101839052606481018490526084016103e8565b6000838152602081815260408083206001600160a01b038d16845290915290209082900390555b6001600160a01b03871615611075576000828152602081815260408083206001600160a01b038b1684529091528120805483929061106f908490611a83565b90915550505b5050600101610f7d565b5082516001036111005760208301516000906020840151909150856001600160a01b0316876001600160a01b0316846001600160a01b03167fc3d58168c5ae7397731d063d5bbf3d657854427343f4c083240f7aacaa2d0f6285856040516110f1929190918252602082015260400190565b60405180910390a45050610882565b836001600160a01b0316856001600160a01b0316826001600160a01b03167f4a39dc06d4c0dbc64b70af90fd698a233a518aa5d07e595d983b8c0526c8f7fb868660405161114f929190611aa4565b60405180910390a45050505050565b80356001600160a01b038116811461117557600080fd5b919050565b6000806040838503121561118d57600080fd5b6111968361115e565b946020939093013593505050565b6001600160e01b03198116811461033c57600080fd5b6000602082840312156111cc57600080fd5b81356111d7816111a4565b9392505050565b634e487b7160e01b600052604160045260246000fd5b604051601f8201601f191681016001600160401b038111828210171561121c5761121c6111de565b604052919050565b60006001600160401b0383111561123d5761123d6111de565b611250601f8401601f19166020016111f4565b905082815283838301111561126457600080fd5b828260208301376000602084830101529392505050565b60006020828403121561128d57600080fd5b81356001600160401b038111156112a357600080fd5b8201601f810184136112b457600080fd5b6112c384823560208401611224565b949350505050565b6000602082840312156112dd57600080fd5b5035919050565b60005b838110156112ff5781810151838201526020016112e7565b50506000910152565b600081518084526113208160208601602086016112e4565b601f01601f19169290920160200192915050565b6020815260006111d76020830184611308565b60006001600160401b03821115611360576113606111de565b5060051b60200190565b600082601f83011261137b57600080fd5b8135602061139061138b83611347565b6111f4565b8083825260208201915060208460051b8701019350868411156113b257600080fd5b602086015b848110156113ce57803583529183019183016113b7565b509695505050505050565b600082601f8301126113ea57600080fd5b6111d783833560208501611224565b6000806000806080858703121561140f57600080fd5b6114188561115e565b935060208501356001600160401b038082111561143457600080fd5b6114408883890161136a565b9450604087013591508082111561145657600080fd5b6114628883890161136a565b9350606087013591508082111561147857600080fd5b50611485878288016113d9565b91505092959194509250565b600080600080600060a086880312156114a957600080fd5b6114b28661115e565b94506114c06020870161115e565b935060408601356001600160401b03808211156114dc57600080fd5b6114e889838a0161136a565b945060608801359150808211156114fe57600080fd5b61150a89838a0161136a565b9350608088013591508082111561152057600080fd5b5061152d888289016113d9565b9150509295509295909350565b6000806040838503121561154d57600080fd5b82356001600160401b038082111561156457600080fd5b818501915085601f83011261157857600080fd5b8135602061158861138b83611347565b82815260059290921b840181019181810190898411156115a757600080fd5b948201945b838610156115cc576115bd8661115e565b825294820194908201906115ac565b965050860135925050808211156115e257600080fd5b506115ef8582860161136a565b9150509250929050565b60008151808452602080850194506020840160005b8381101561162a5781518752958201959082019060010161160e565b509495945050505050565b6020815260006111d760208301846115f9565b60008060006060848603121561165d57600080fd5b6116668461115e565b925060208401356001600160401b038082111561168257600080fd5b61168e8783880161136a565b935060408601359150808211156116a457600080fd5b506116b18682870161136a565b9150509250925092565b600080600080608085870312156116d157600080fd5b6116da8561115e565b9350602085013592506040850135915060608501356001600160401b0381111561170357600080fd5b611485878288016113d9565b6000806040838503121561172257600080fd5b61172b8361115e565b91506020830135801515811461174057600080fd5b809150509250929050565b6000806040838503121561175e57600080fd5b6117678361115e565b91506117756020840161115e565b90509250929050565b600080600080600060a0868803121561179657600080fd5b61179f8661115e565b94506117ad6020870161115e565b9350604086013592506060860135915060808601356001600160401b038111156117d657600080fd5b61152d888289016113d9565b6000602082840312156117f457600080fd5b6111d78261115e565b60008060006060848603121561181257600080fd5b61181b8461115e565b95602085013595506040909401359392505050565b600083516118428184602088016112e4565b602f60f81b90830190815283516118608160018401602088016112e4565b01600101949350505050565b634e487b7160e01b600052603260045260246000fd5b600181811c9082168061189657607f821691505b6020821081036118b657634e487b7160e01b600052602260045260246000fd5b50919050565b601f821115610543576000816000526020600020601f850160051c810160208610156118e55750805b601f850160051c820191505b818110156103fe578281556001016118f1565b81516001600160401b0381111561191d5761191d6111de565b6119318161192b8454611882565b846118bc565b602080601f831160018114611966576000841561194e5750858301515b600019600386901b1c1916600185901b1785556103fe565b600085815260208120601f198616915b8281101561199557888601518255948401946001909101908401611976565b50858210156119b35787850151600019600388901b60f8161c191681555b5050505050600190811b01905550565b6001600160a01b03868116825285166020820152604081018490526060810183905260a0608082018190526000906119fd90830184611308565b979650505050505050565b600060208284031215611a1a57600080fd5b81516111d7816111a4565b6001600160a01b0386811682528516602082015260a060408201819052600090611a51908301866115f9565b8281036060840152611a6381866115f9565b90508281036080840152611a778185611308565b98975050505050505050565b808201808211156102d557634e487b7160e01b600052601160045260246000fd5b604081526000611ab760408301856115f9565b8281036020840152611ac981856115f9565b9594505050505056fea2646970667358221220f8d993c14ac84bfc229c939e6a0e0e72bc97990d364e2de5d159d76e1fe3089f64736f6c63430008190033","linkReferences":{}},"methodIdentifiers":{"balanceOf(address,uint256)":"00fdd58e","balanceOfBatch(address[],uint256[])":"4e1273f4","burn(address,uint256,uint256)":"f5298aca","burnBatch(address,uint256[],uint256[])":"6b20c454","isApprovedForAll(address,address)":"e985e9c5","mint(address,uint256,uint256,bytes)":"731133e9","mintBatch(address,uint256[],uint256[],bytes)":"1f7fdffa","owner()":"8da5cb5b","pause()":"8456cb59","paused()":"5c975abb","renounceOwnership()":"715018a6","safeBatchTransferFrom(address,address,uint256[],uint256[],bytes)":"2eb2c2d6","safeTransferFrom(address,address,uint256,uint256,bytes)":"f242432a","setApprovalForAll(address,bool)":"a22cb465","setURI(string)":"02fe5305","supportsInterface(bytes4)":"01ffc9a7","transferOwnership(address)":"f2fde38b","unpause()":"3f4ba83a","uri(uint256)":"0e89341c"},"id":73}