{"abi":[{"type":"constructor","inputs":[{"name":"GovernanceSC","type":"address","internalType":"address"}],"stateMutability":"nonpayable"},{"type":"function","name":"addInstructor","inputs":[{"name":"_instructor","type":"address","internalType":"address"},{"name":"_name","type":"string","internalType":"string"}],"outputs":[],"stateMutability":"nonpayable"},{"type":"function","name":"createLesson","inputs":[{"name":"_id","type":"uint256","internalType":"uint256"},{"name":"_instructor","type":"address","internalType":"address"},{"name":"_style","type":"string","internalType":"string"},{"name":"_startsAt","type":"uint256","internalType":"uint256"},{"name":"_endsAt","type":"uint256","internalType":"uint256"},{"name":"_maxParticipants","type":"uint256","internalType":"uint256"},{"name":"_fee","type":"uint256","internalType":"uint256"}],"outputs":[],"stateMutability":"nonpayable"},{"type":"function","name":"getParticipants","inputs":[{"name":"_id","type":"uint256","internalType":"uint256"}],"outputs":[{"name":"","type":"address[]","internalType":"address[]"}],"stateMutability":"view"},{"type":"function","name":"governanceSC","inputs":[],"outputs":[{"name":"","type":"address","internalType":"address"}],"stateMutability":"view"},{"type":"function","name":"instructors","inputs":[{"name":"","type":"address","internalType":"address"}],"outputs":[{"name":"instructor","type":"address","internalType":"address"},{"name":"status","type":"bool","internalType":"bool"},{"name":"name","type":"string","internalType":"string"}],"stateMutability":"view"},{"type":"function","name":"lessons","inputs":[{"name":"","type":"uint256","internalType":"uint256"}],"outputs":[{"name":"id","type":"uint256","internalType":"uint256"},{"name":"instructor","type":"address","internalType":"address"},{"name":"style","type":"string","internalType":"string"},{"name":"startsAt","type":"uint256","internalType":"uint256"},{"name":"endsAt","type":"uint256","internalType":"uint256"},{"name":"maxParticipants","type":"uint256","internalType":"uint256"},{"name":"fee","type":"uint256","internalType":"uint256"},{"name":"participants","type":"uint256","internalType":"uint256"}],"stateMutability":"view"},{"type":"function","name":"modifyLesson","inputs":[{"name":"_id","type":"uint256","internalType":"uint256"},{"name":"_instructor","type":"address","internalType":"address"},{"name":"_style","type":"string","internalType":"string"},{"name":"_startsAt","type":"uint256","internalType":"uint256"},{"name":"_endsAt","type":"uint256","internalType":"uint256"},{"name":"_maxParticipants","type":"uint256","internalType":"uint256"},{"name":"_fee","type":"uint256","internalType":"uint256"}],"outputs":[],"stateMutability":"nonpayable"},{"type":"function","name":"participants","inputs":[{"name":"","type":"uint256","internalType":"uint256"},{"name":"","type":"uint256","internalType":"uint256"}],"outputs":[{"name":"","type":"address","internalType":"address"}],"stateMutability":"view"},{"type":"function","name":"registerToLesson","inputs":[{"name":"_id","type":"uint256","internalType":"uint256"}],"outputs":[],"stateMutability":"payable"},{"type":"function","name":"removeInstructor","inputs":[{"name":"_instructor","type":"address","internalType":"address"}],"outputs":[],"stateMutability":"nonpayable"},{"type":"function","name":"setGovernanceSC","inputs":[{"name":"_governanceSC","type":"address","internalType":"address"}],"outputs":[],"stateMutability":"nonpayable"},{"type":"function","name":"verifyParticipant","inputs":[{"name":"_id","type":"uint256","internalType":"uint256"},{"name":"_participant","type":"address","internalType":"address"}],"outputs":[{"name":"","type":"bool","internalType":"bool"}],"stateMutability":"view"},{"type":"event","name":"InstructorSet","inputs":[{"name":"instructor","type":"address","indexed":false,"internalType":"address"},{"name":"name","type":"string","indexed":false,"internalType":"string"},{"name":"status","type":"bool","indexed":false,"internalType":"bool"}],"anonymous":false},{"type":"event","name":"LessonCreated","inputs":[{"name":"id","type":"uint256","indexed":false,"internalType":"uint256"},{"name":"instructor","type":"address","indexed":false,"internalType":"address"},{"name":"style","type":"string","indexed":false,"internalType":"string"},{"name":"startsAt","type":"uint256","indexed":false,"internalType":"uint256"},{"name":"endsAt","type":"uint256","indexed":false,"internalType":"uint256"},{"name":"maxParticipants","type":"uint256","indexed":false,"internalType":"uint256"},{"name":"fee","type":"uint256","indexed":false,"internalType":"uint256"}],"anonymous":false},{"type":"event","name":"ParticipantRegistered","inputs":[{"name":"id","type":"uint256","indexed":false,"internalType":"uint256"},{"name":"participant","type":"address","indexed":false,"internalType":"address"}],"anonymous":false}],"bytecode":{"object":"0x6080604052348015600f57600080fd5b506040516110ca3803806110ca833981016040819052602c916050565b600080546001600160a01b0319166001600160a01b0392909216919091179055607e565b600060208284031215606157600080fd5b81516001600160a01b0381168114607757600080fd5b9392505050565b61103d8061008d6000396000f3fe6080604052600436106100a75760003560e01c8063875ff37a11610064578063875ff37a1461019d5780638e0186d7146101bd5780639c566f2a146101dd578063c1e3bd3e146101fd578063e1d1a8411461022a578063e68279321461025e57600080fd5b806304f12669146100ac5780631326df50146100e15780632a47d91c146100f657806357703ee21461012557806381fb1fb4146101455780638630d9901461017d575b600080fd5b3480156100b857600080fd5b506100cc6100c7366004610a33565b61027e565b60405190151581526020015b60405180910390f35b6100f46100ef366004610a5f565b6102fc565b005b34801561010257600080fd5b50610116610111366004610a78565b610457565b6040516100d893929190610ae0565b34801561013157600080fd5b506100f4610140366004610bb8565b610513565b34801561015157600080fd5b50610165610160366004610c34565b6105a6565b6040516001600160a01b0390911681526020016100d8565b34801561018957600080fd5b506100f4610198366004610bb8565b6105de565b3480156101a957600080fd5b506100f46101b8366004610c56565b61072e565b3480156101c957600080fd5b506100f46101d8366004610a78565b61080a565b3480156101e957600080fd5b506100f46101f8366004610a78565b610856565b34801561020957600080fd5b5061021d610218366004610a5f565b6108d7565b6040516100d89190610ca4565b34801561023657600080fd5b5061024a610245366004610a5f565b610943565b6040516100d8989796959493929190610cf1565b34801561026a57600080fd5b50600054610165906001600160a01b031681565b6000805b6000848152600360205260409020548110156102f057600084815260036020526040902080546001600160a01b0385169190839081106102c4576102c4610d48565b6000918252602090912001546001600160a01b0316036102e85760019150506102f6565b600101610282565b50600090505b92915050565b60008181526002602052604090206005810154600790910154106103675760405162461bcd60e51b815260206004820152601a60248201527f53687566666c6544414f3a204c6573736f6e2069732066756c6c00000000000060448201526064015b60405180910390fd5b60008181526002602052604090206006015434146103c75760405162461bcd60e51b815260206004820152601e60248201527f53687566666c6544414f3a20466565206973206e6f7420636f72726563740000604482015260640161035e565b60008181526002602052604081206007018054916103e483610d5e565b9091555050600081815260036020908152604080832080546001810182559084529282902090920180546001600160a01b031916339081179091558251848152918201527f78337b3a0cfc36faafab5a292dc7571f6bd68ba681c22e15c97b1e3469b51a0291015b60405180910390a150565b6001602081905260009182526040909120805491810180546001600160a01b03841693600160a01b900460ff1692919061049090610d85565b80601f01602080910402602001604051908101604052809291908181526020018280546104bc90610d85565b80156105095780601f106104de57610100808354040283529160200191610509565b820191906000526020600020905b8154815290600101906020018083116104ec57829003601f168201915b5050505050905083565b6000546001600160a01b0316331461053d5760405162461bcd60e51b815260040161035e90610dbf565b60008781526002602081905260409091206001810180546001600160a01b0319166001600160a01b038a16179055016105768682610e62565b50600096875260026020526040909620600381019390935560048301919091556005820155600601929092555050565b600360205281600052604060002081815481106105c257600080fd5b6000918252602090912001546001600160a01b03169150829050565b33600090815260016020819052604090912054600160a01b900460ff161515146106665760405162461bcd60e51b815260206004820152603360248201527f53687566666c6544414f3a204f6e6c7920496e7374727563746f72732063616e6044820152721031b0b636103a3434b990333ab731ba34b7b760691b606482015260840161035e565b60408051610100810182528881526001600160a01b0388811660208084019182528385018a8152606085018a90526080850189905260a0850188905260c08501879052600060e086018190528d8152600292839052959095208451815591516001830180546001600160a01b03191691909416179092559251919291908201906106f09082610e62565b50606082015160038201556080820151600482015560a0820151600582015560c0820151600682015560e09091015160079091015550505050505050565b6000546001600160a01b031633146107585760405162461bcd60e51b815260040161035e90610dbf565b604080516060810182526001600160a01b0380851680835260016020808501828152858701888152600094855291839052959092208451815496511515600160a01b026001600160a81b03199097169416939093179490941782555191929091908201906107c69082610e62565b509050507f33c127bbdef3da0f7e3f392c8c6588c5645e980dd9d2da85f96a67b0e3e2617f828260016040516107fe93929190610f22565b60405180910390a15050565b6000546001600160a01b031633146108345760405162461bcd60e51b815260040161035e90610dbf565b600080546001600160a01b0319166001600160a01b0392909216919091179055565b6000546001600160a01b031633146108805760405162461bcd60e51b815260040161035e90610dbf565b6001600160a01b0381166000908152600160208190526040808320805460ff60a01b1916815590517f33c127bbdef3da0f7e3f392c8c6588c5645e980dd9d2da85f96a67b0e3e2617f9361044c9386930191610f58565b60008181526003602090815260409182902080548351818402810184019094528084526060939283018282801561093757602002820191906000526020600020905b81546001600160a01b03168152600190910190602001808311610919575b50505050509050919050565b600260208190526000918252604090912080546001820154928201805491936001600160a01b0316929161097690610d85565b80601f01602080910402602001604051908101604052809291908181526020018280546109a290610d85565b80156109ef5780601f106109c4576101008083540402835291602001916109ef565b820191906000526020600020905b8154815290600101906020018083116109d257829003601f168201915b5050505050908060030154908060040154908060050154908060060154908060070154905088565b80356001600160a01b0381168114610a2e57600080fd5b919050565b60008060408385031215610a4657600080fd5b82359150610a5660208401610a17565b90509250929050565b600060208284031215610a7157600080fd5b5035919050565b600060208284031215610a8a57600080fd5b610a9382610a17565b9392505050565b6000815180845260005b81811015610ac057602081850181015186830182015201610aa4565b506000602082860101526020601f19601f83011685010191505092915050565b6001600160a01b03841681528215156020820152606060408201819052600090610b0c90830184610a9a565b95945050505050565b634e487b7160e01b600052604160045260246000fd5b600082601f830112610b3c57600080fd5b813567ffffffffffffffff80821115610b5757610b57610b15565b604051601f8301601f19908116603f01168101908282118183101715610b7f57610b7f610b15565b81604052838152866020858801011115610b9857600080fd5b836020870160208301376000602085830101528094505050505092915050565b600080600080600080600060e0888a031215610bd357600080fd5b87359650610be360208901610a17565b9550604088013567ffffffffffffffff811115610bff57600080fd5b610c0b8a828b01610b2b565b979a96995096976060810135975060808101359660a0820135965060c090910135945092505050565b60008060408385031215610c4757600080fd5b50508035926020909101359150565b60008060408385031215610c6957600080fd5b610c7283610a17565b9150602083013567ffffffffffffffff811115610c8e57600080fd5b610c9a85828601610b2b565b9150509250929050565b6020808252825182820181905260009190848201906040850190845b81811015610ce55783516001600160a01b031683529284019291840191600101610cc0565b50909695505050505050565b8881526001600160a01b038816602082015261010060408201819052600090610d1c8382018a610a9a565b60608401989098525050608081019490945260a084019290925260c083015260e0909101529392505050565b634e487b7160e01b600052603260045260246000fd5b600060018201610d7e57634e487b7160e01b600052601160045260246000fd5b5060010190565b600181811c90821680610d9957607f821691505b602082108103610db957634e487b7160e01b600052602260045260246000fd5b50919050565b60208082526032908201527f53687566666c6544414f3a204f6e6c7920476f7665726e616e63652063616e2060408201527131b0b636103a3434b990333ab731ba34b7b760711b606082015260800190565b601f821115610e5d576000816000526020600020601f850160051c81016020861015610e3a5750805b601f850160051c820191505b81811015610e5957828155600101610e46565b5050505b505050565b815167ffffffffffffffff811115610e7c57610e7c610b15565b610e9081610e8a8454610d85565b84610e11565b602080601f831160018114610ec55760008415610ead5750858301515b600019600386901b1c1916600185901b178555610e59565b600085815260208120601f198616915b82811015610ef457888601518255948401946001909101908401610ed5565b5085821015610f125787850151600019600388901b60f8161c191681555b5050505050600190811b01905550565b6001600160a01b0384168152606060208201819052600090610f4690830185610a9a565b90508215156040830152949350505050565b60018060a01b0384168152600060206060602084015260008554610f7b81610d85565b8060608701526080600180841660008114610f9d5760018114610fb957610fe9565b60ff19851660808a0152608084151560051b8a01019550610fe9565b8a600052602060002060005b85811015610fe05781548b8201860152908301908801610fc5565b8a016080019650505b505050508515156040860152509150610fff9050565b94935050505056fea26469706673582212205015475ef2b5895a0ae1a1a7cba8a9a4e4112111736a1ec4ba81ec3d74f4ccc264736f6c63430008190033","linkReferences":{}},"methodIdentifiers":{"addInstructor(address,string)":"875ff37a","createLesson(uint256,address,string,uint256,uint256,uint256,uint256)":"8630d990","getParticipants(uint256)":"c1e3bd3e","governanceSC()":"e6827932","instructors(address)":"2a47d91c","lessons(uint256)":"e1d1a841","modifyLesson(uint256,address,string,uint256,uint256,uint256,uint256)":"57703ee2","participants(uint256,uint256)":"81fb1fb4","registerToLesson(uint256)":"1326df50","removeInstructor(address)":"9c566f2a","setGovernanceSC(address)":"8e0186d7","verifyParticipant(uint256,address)":"04f12669"},"id":74}